:100000000C948E000C94CA030C94F7030C94B60065
:100010000C94B6000C94B6000C94B6000C94B60088
:100020000C94B6000C94B6000C94B6000C94B60078
:100030000C94B6000C94B6000C94B6000C94B60068
:100040000C9424040C94B6000C94B4060C94E606AC
:100050000C94B6000C94B6000C94B6000C94B60048
:100060000C94B6000C94B6000A52656D6F7465204E
:10007000636F6E74726F6C20636F6D6D616E64730D
:100080003A0A20203C616464723E2C3C6465763EF2
:100090002C3C6F6E3E206520202020202020202038
:1000A00020202020202D20454C524F20636F6D6D65
:1000B000616E642028343333204D487A290A0000C9
:1000C0000000080002010000030407000000000017
:1000D0000000000102040810204080010204081002
:1000E000200102040810200404040404040404028F
:1000F00002020202020303030303030000000023C1
:10010000002600290000000000250028002B000028
:10011000000000240027002A0000160711241FBE3B
:10012000CFEFD8E0DEBFCDBF11E0A0E0B1E0EAE75D
:10013000F1E102C005900D92A432B107D9F722E097
:10014000A4E2B1E001C01D92A536B207E1F711E0CB
:10015000CCE1D1E004C02297FE010E94B708CA3169
:10016000D107C9F70E945A070C94BB080C940000F1
:100170000F931F93CF93DF93EC018B0181E00E94DB
:100180009103CE018A569F4F0E946E0480E00E9428
:100190009103C801885C9109DF91CF911F910F9164
:1001A0000C946E04CF93C82F61E089E00E94DD04B7
:1001B0006C2F89E0CF910C9416051F93CF93DF939A
:1001C000C8E6D0E0FE011491112371F01A3029F431
:1001D0006DE088EC91E00E94A907612F88EC91E026
:1001E0000E94A9072196EECFDF91CF911F9108952C
:1001F000EF92FF920F931F93CF93DF938F7120E8BD
:10020000829FC0011124E7E0F0E0E61BF10921E044
:1002100030E002C0220F331FEA95E2F7822B932BC6
:10022000442319F022E030E002C021E030E07C01FC
:10023000E22AF32A08E010E0CBE0D0E0C7010C2E60
:1002400002C0969587950A94E2F765E674E080FF10
:1002500009C087E791E00E94B80065E674E087E78F
:1002600091E008C087E791E00E94B80067E771E07D
:1002700085E694E00E94B800219700F769E67DE2E8
:1002800087E791E00E94B80001501109A9F6DF91BB
:10029000CF911F910F91FF90EF90089526E040E8D5
:1002A00055E260E070E088EC91E00E94580667E05B
:1002B00071E088EC91E00E94C40781E00E94D200C6
:1002C00020E436E044ED61E080E00E94140380E029
:1002D0000C94D200CF93DF9388EC91E00E947505D7
:1002E000892B09F47CC088EC91E00E948E05C82F10
:1002F00080ED8C0F8A3060F480916B01880F982F0D
:10030000990F990F980F90539C0F90936B0167C0B2
:10031000CC3289F4E0912401E63450F481E08E0F70
:1003200080932401F0E0EB5DFE4F80916B018083B0
:1003300010926B0154C08FE98C0F8A3108F04BC0CA
:1003400061E171E088EC91E00E94A707D0E0809124
:100350002401D81798F4ED2FF0E0EB5DFE4F60819B
:1003600070E04AE050E088EC91E00E948B086CE27B
:1003700088EC91E00E94A907DF5FE9CF60916B01F3
:1003800070E04AE050E088EC91E00E948B086C2F0E
:1003900088EC91E00E94D607C53619F00E94DD0076
:1003A0000EC081E00E94D20040916B016091260155
:1003B000809125010E94F80080E00E94D2001092F6
:1003C000240110926B0186E4E5E2F1E0DF011D9269
:1003D0008A95E9F704C0DF91CF910C94DD00DF919D
:1003E000CF9108958627682F62956827062E669517
:1003F00066956025062E669560256770082E892F04
:10040000669507946795902D8627069467959025A5
:100410008627089525B141E050E060E070E000904B
:10042000060104C0440F551F661F771F0A94D2F7B8
:100430004095422345B99EBD0DB407FEFDCF2EB5B4
:1004400030E0322F22278EBD0DB407FEFDCF9EB5C2
:1004500085B141E050E060E070E00090060104C02A
:10046000440F551F661F771F0A94D2F7842B85B956
:10047000A901492BCA010895CF9380E090E00E9422
:100480000A028091B501853091F580E090EB0E94E1
:100490000A02682F8091B601811104C09091B901C0
:1004A000911174C0E091B60181E08E0F8093B60186
:1004B000F0E0E459FE4F60838091B3019091B40164
:1004C0000E94F2019093B4018093B30180916E0178
:1004D0002091B60190E0049630E0821793070CF467
:1004E00060C08091B601873408F05BC05FC0809126
:1004F000B50187FF1AC0E0916E018091B50191E0CE
:10050000980F9093B501ED5FE80FF0E0E459FE4FCE
:10051000C0818091B3019091B4016C2F0E94F201CF
:100520009093B4018093B3012DC08091B50191E007
:10053000980F9093B501833001F154F48823B9F0FA
:100540008130F9F48091B3019091B401C92F1AC0A0
:10055000893059F08A30A9F4C091B90190916E01A7
:100560008EEF891B8093B5010DC0CDE20BC0809149
:10057000B3019091B401C82F05C08DE092E80E94AC
:100580000A02CAEA8C2F90E098540DC0E091B6019F
:1005900081E08E0F8093B601F0E0E459FE4F908326
:1005A00081CF8DE092E8CF910C940A02CF9108950B
:1005B00025B181E090E0A0E0B0E0AC01BD01009089
:1005C000060104C0440F551F661F771F0A94D2F717
:1005D000242B25B924B10090060104C0880F991F6F
:1005E000AA1FBB1F0A94D2F7282B24B961E08AE026
:1005F0000E94160561E08AE00E94DD0461E08BE064
:100600000E94DD0460E08CE00E94DD0461E08DE08A
:100610000E94DD0480E58CBD60E082E00E94DD0484
:1006200061E082E00C941605CF93C62F8093BA0147
:100630004093B9013093B8012093B7010E94D802CA
:1006400080E090E00E940A0285E092E80E940A029F
:1006500080E098EB0E940A0282E00E944C05892B00
:1006600019F480E090E0F6CF20E1C29FC001112490
:10067000876C90680E940A028091B7019091B8013E
:1006800090560E940A0286E096EC0E940A0282EAD4
:1006900094E90E940A028CEA92EC0E940A02C0913C
:1006A000B901CC2341F083E89AEC0E940A028C2F16
:1006B00090E09E6C06C08BE89AEC0E940A028DE2E4
:1006C0009EEC0E940A0283E894EC0E940A0280E5F4
:1006D00098E90E940A0287E79CEC0E940A0280E0E7
:1006E00090EE0E940A0280E098EC0E940A0289E4DF
:1006F00090EC0E940A0284E08093B5018091BA01D7
:100700008F7141F040E050E06CE372E080E00E94C5
:100710009A0303C080E00E94BA038091BA01CF918E
:100720000895882319F08DE392E802C08DE092E8E5
:100730000C940A028230E8F4E82FF0E0EE0FFF1F7D
:10074000E554FE4F71836083813041F080916900F0
:100750008C7F842B80936900E89A089580916900CA
:10076000440F551F440F551F837F842B80936900CE
:10077000E99A0895823068F4813011F0E89801C058
:10078000E998E82FF0E0EE0FFF1FE554FE4F1182CD
:10079000108208951F920F920FB60F9211242F937B
:1007A0003F934F935F936F937F938F939F93AF93F9
:1007B000BF93EF93FF938091BB019091BC01892B74
:1007C00029F0E091BB01F091BC010995FF91EF91F7
:1007D000BF91AF919F918F917F916F915F914F9159
:1007E0003F912F910F900FBE0F901F9018951F9261
:1007F0000F920FB60F9211242F933F934F935F9355
:100800006F937F938F939F93AF93BF93EF93FF93D8
:100810008091BD019091BE01892B29F0E091BD012D
:10082000F091BE010995FF91EF91BF91AF919F911A
:100830008F917F916F915F914F913F912F910F9089
:100840000FBE0F901F9018951F920F920FB60F9228
:1008500011242F933F938F939F93AF93BF938091D6
:10086000C0019091C101A091C201B091C30130912A
:10087000BF0126E0230F2D3720F40296A11DB11DE4
:1008800005C029E8230F0396A11DB11D2093BF01C8
:100890008093C0019093C101A093C201B093C301A2
:1008A0008091C4019091C501A091C601B091C7018A
:1008B0000196A11DB11D8093C4019093C501A09321
:1008C000C601B093C701BF91AF919F918F913F91A6
:1008D0002F910F900FBE0F901F90189581309105AA
:1008E00039F0029729F0880F991F01970197F1F7C6
:1008F0000895789484B5826084BD84B5816084BD98
:1009000085B5826085BD85B5816085BDEEE6F0E088
:10091000808181608083E1E8F0E0108280818260E4
:100920008083808181608083E0E8F0E08081816065
:100930008083E1EBF0E0808184608083E0EBF0E095
:10094000808181608083EAE7F0E080818460808339
:1009500080818260808380818160808380818068E3
:1009600080831092C1000895833081F028F4813093
:1009700099F08230A1F008958730A9F08830B9F05D
:100980008430D1F4809180008F7D03C080918000FD
:100990008F7780938000089584B58F7702C084B5E7
:1009A0008F7D84BD08958091B0008F7703C08091C2
:1009B000B0008F7D8093B0000895CF93DF9390E0D7
:1009C000FC01ED52FF4F2491FC01E951FF4F84914E
:1009D000882349F190E0880F991FFC01E15FFE4FE9
:1009E000A591B4918B5F9E4FFC01C591D4919FB7A7
:1009F000611108C0F8948C91209582238C93888192
:100A000082230AC0623051F4F8948C91322F3095D1
:100A100083238C938881822B888304C0F8948C91E3
:100A2000822B8C939FBFDF91CF9108950F931F93DB
:100A3000CF93DF931F92CDB7DEB7282F30E0F901B7
:100A4000E154FF4F8491F901ED52FF4F1491F901E8
:100A5000E951FF4F04910023C9F0882321F06983F5
:100A60000E94B4046981E02FF0E0EE0FFF1FEB5FFE
:100A7000FE4FA591B4919FB7F8948C91611103C07A
:100A80001095812301C0812B8C939FBF0F90DF9124
:100A9000CF911F910F910895CF93DF93282F30E0CE
:100AA000F901E154FF4F8491F901ED52FF4FD491C8
:100AB000F901E951FF4FC491CC2391F081110E94BB
:100AC000B404EC2FF0E0EE0FFF1FE550FF4FA591AF
:100AD000B4912C912D2381E090E021F480E002C0BC
:100AE00080E090E0DF91CF910895FC01818D228D0F
:100AF00090E0805C9F4F821B91098F739927089526
:100B0000FC01918D828D981731F0828DE80FF11DD7
:100B1000858D90E008958FEF9FEF0895FC01918DF2
:100B2000828D981761F0828DDF01A80FB11D5D964F
:100B30008C91928D9F5F9F73928F90E008958FEFBD
:100B40009FEF08958CE097E0892B49F080E090E0DA
:100B5000892B29F00E940C0781110C940000089544
:100B6000FC01848DDF01A80FB11DA35ABF4F2C914A
:100B7000848D90E001968F739927848FA689B78919
:100B80002C93A089B1898C9180648C93938D848DF2
:100B9000981306C00288F389E02D80818F7D8083C1
:100BA0000895CF93DF93EC01888D8823C9F0EA89FB
:100BB000FB89808185FD05C0A889B9898C9186FD56
:100BC0000FC00FB607FCF5CF808185FFF2CFA88953
:100BD000B9898C9185FFEDCFCE010E94B005E7CF9A
:100BE000DF91CF910895CF92DF92FF920F931F93E1
:100BF000CF93DF931F92CDB7DEB76C01DC015B961C
:100C00009C915B975C968C915C97981307C050966B
:100C1000ED91FC915197808185FD32C0F601038DE5
:100C200010E00F5F1F4F0F731127F02EF601848D18
:100C3000F81211C00FB607FCF9CFD6015096ED910E
:100C4000FC915197808185FFF1CFC60169830E9495
:100C5000B0056981EBCF838DE80FF11DE35AFF4F9B
:100C60006083D6015B960C935B975296ED91FC9155
:100C7000539780818062808381E058968C930DC069
:100C8000D6015696ED91FC91579760835096ED9161
:100C9000FC91519780818064808381E090E00F9087
:100CA000DF91CF911F910F91FF90DF90CF9008952A
:100CB000BF92CF92DF92EF92FF92CF93DF93EC013E
:100CC0006A017B01B22E60E874E88EE190E0A70132
:100CD00096010E9493082150310941095109569506
:100CE000479537952795E889F98982E08083211512
:100CF00080E1380798F0E889F989108260E472E4AD
:100D00008FE090E0A70196010E94930821503109DD
:100D1000410951095695479537952795EC85FD85ED
:100D20003083EE85FF852083188EEC89FD89B082A3
:100D3000EA89FB89808180618083EA89FB898081DF
:100D400088608083EA89FB89808180688083EA8962
:100D5000FB8980818F7D8083DF91CF91FF90EF9021
:100D6000DF90CF90BF9008951F920F920FB60F9211
:100D700011242F938F939F93EF93FF93E091D801CA
:100D8000F091D9018081E091DE01F091DF0182FDD7
:100D900012C090818091E1018F5F8F732091E201F9
:100DA000821751F0E091E101F0E0E853FE4F958F9A
:100DB0008093E10101C08081FF91EF919F918F911C
:100DC0002F910F900FBE0F901F9018951F920F92AA
:100DD0000FB60F9211242F933F934F935F936F930E
:100DE0007F938F939F93AF93BF93EF93FF9388EC81
:100DF00091E00E94B005FF91EF91BF91AF919F915B
:100E00008F917F916F915F914F913F912F910F90B3
:100E10000FBE0F901F90189588EC91E00E94750509
:100E200021E0892B09F420E0822F08951092CB0154
:100E30001092CA0188EE93E0A0E0B0E08093CC016C
:100E40009093CD01A093CE01B093CF0188E191E0C2
:100E50009093C9018093C80185EC90E09093D501EF
:100E60008093D40184EC90E09093D7018093D601D5
:100E700080EC90E09093D9018093D80181EC90E0D0
:100E80009093DB018093DA0182EC90E09093DD0196
:100E90008093DC0186EC90E09093DF018093DE018B
:100EA0001092E1011092E2011092E3011092E4012C
:100EB000089508950E9479040E9459070E944E01E6
:100EC000C2EAD5E00E946A012097E1F30E94A205E0
:100ED000F9CFCF92DF92EF92FF920F931F93CF93B0
:100EE000DF936C017A01EB01E60EF71E00E010E0E3
:100EF000CE15DF0561F06991D601ED91FC9101906D
:100F0000F081E02DC6010995080F191FF1CFC80126
:100F1000DF91CF911F910F91FF90EF90DF90CF90D5
:100F200008956115710581F0DB010D900020E9F74E
:100F3000AD0141505109461B570BDC01ED91FC916D
:100F40000280F381E02D099480E090E008950C94F4
:100F50009107DC01ED91FC910190F081E02D099465
:100F60000F931F93CF93DF93EC016DE00E94A907CD
:100F70008C016AE0CE010E94A907800F911FDF91CA
:100F8000CF911F910F9108950F931F93CF93DF93EC
:100F9000EC010E9491078C01CE010E94B007800FE6
:100FA000911FDF91CF911F910F9108950F931F9380
:100FB000CF93DF93EC010E94A9078C01CE010E9420
:100FC000B007800F911FDF91CF911F910F9108956E
:100FD0008F929F92AF92BF92CF92DF92EF92FF9249
:100FE0000F931F93CF93DF93CDB7DEB7A1970FB6C3
:100FF000F894DEBF0FBECDBF7C01C42EE52FCB0120
:10100000D22E19A221E02D1510F02AE0D22E8E0149
:101010000F5D1F4F8D2C912CA12CB12C6C2D7E2F90
:10102000A50194010E9493088C2DD29E8019112451
:10103000015011098A3014F4805D01C0895CF80107
:101040008083211531054105510521F0C22EE32F82
:10105000CA01E4CFB801C7010E949107A1960FB65B
:10106000F894DEBF0FBECDBFDF91CF911F910F91DE
:10107000FF90EF90DF90CF90BF90AF909F908F90B8
:101080000895CF92DF92EF92FF920F931F93CF9329
:10109000DF93EC016A017B012115310579F4E881C8
:1010A000F9810190F081E02D642FDF91CF911F91A4
:1010B0000F91FF90EF90DF90CF9009942A30310587
:1010C000E9F477FF1AC06DE20E94A9078C0144275A
:1010D0005527BA014C195D096E097F092AE0CE0136
:1010E0000E94E807800F911FDF91CF911F910F9110
:1010F000FF90EF90DF90CF9008952AE0B701A6010E
:10110000CE01DF91CF911F910F91FF90EF90DF9073
:10111000CF900C94E8079A01AB01662757FD6095C4
:10112000762F0C944108A1E21A2EAA1BBB1BFD01CD
:101130000DC0AA1FBB1FEE1FFF1FA217B307E407B6
:10114000F50720F0A21BB30BE40BF50B661F771F0E
:10115000881F991F1A9469F76095709580959095EE
:101160009B01AC01BD01CF010895EE0FFF1F05905B
:0A117000F491E02D0994F894FFCFEC
:10117A00000065028000020A656C726F64656D6F1B
:10118A00003E200000000000F305690775058E0582
:04119A008005D105F6
:00000001FF
